:100000000C944D000C946C000C946C000C946C00DF
:100010000C946C000C946C000C946C000C946C00B0
:100020000C946C000C946C000C946C000C946C00A0
:100030000C946C000C94AA000C946C000C946C0052
:100040000C946C000C946C000C946C000C946C0080
:100050000C946C000C946C000C946C000C946C0070
:100060000C946C000C946C000C946C000C946C0060
:100070000C946C000C946C000C946C000C946C0050
:100080000C946C000C946C000C946C009A01A1010F
:10009000CE01DE01EE01FE01120211241FBECFEFE0
:1000A000D0E4DEBFCDBF11E0A0E0B1E0E0E8FAE0CF
:1000B00000E00BBF02C007900D92A432B107D9F740
:1000C00011E0A4E2B1E001C01D92AC33B107E1F749
:1000D0000E949E030C943E050C940000CF93C82F01
:1000E0008A3019F48DE00E946E009091C00095FF57
:1000F000FCCFC093C60080E090E0CF9108958BE0E4
:10010000809381008DE790E0909389008093880030
:1001100082E080936F00109285001092840080919D
:10012000000190910101A0910201B091030180931F
:10013000290190932A01A0932B01B0932C018FB732
:1001400080688FBF089510928100089581E08093A8
:100150002D0108951F920F920FB60F9211240BB626
:100160000F922F933F934F935F936F937F938F9350
:100170009F93AF93BF93EF93FF9380912901909149
:100180002A01A0912B01B0912C010197A109B1097D
:100190008093290190932A01A0932B01B0932C0105
:1001A000892B8A2B8B2B91F40E94A6008091000151
:1001B00090910101A0910201B09103018093290166
:1001C00090932A01A0932B01B0932C01FF91EF9102
:1001D000BF91AF919F918F917F916F915F914F915F
:1001E0003F912F910F900BBE0F900FBE0F901F905D
:1001F0001895609300017093010180930201909320
:1002000003016093290170932A0180932B0190933D
:100210002C010895CF92DF92EF92FF926B017C0147
:1002200020912E0130912F014091300150913101E8
:100230000E94C503882309F458C020E030E0A901DA
:10024000C701B6010E94C503811106C0E1E9F0E0D3
:1002500080818870808305C0E1E9F0E0808183605F
:10026000808328E539E344E75FE3C701B6010E94D4
:10027000C50388233CF48FEF9FEF90939900809300
:10028000980027C020E034E244EF56E4C701B601ED
:100290000E94D70418162CF410929900109298001E
:1002A00018C020E030E040E053E4C701B6010E94EE
:1002B000DB049B01AC0160E074E284EF9AE40E94ED
:1002C000C9030E94310461507109709399006093D1
:1002D00098001092950010929400C0922E01D09236
:1002E0002F01E0923001F0923101FF90EF90DF900A
:1002F000CF90089580E4809390008BE080939100EC
:1003000064EA70ED82E893E40E940A010895109275
:10031000900010929100089580B18095E091320193
:10032000F0913301E730F10508F07CC0EA5BFF4F44
:100330000C94BC0381E090E09093330180933201F0
:1003400075C0982F9770913039F482E090E09093C7
:100350003301809332016AC0923039F483E090E037
:10036000909333018093320161C0943039F484E07A
:1003700090E0909333018093320158C0882339F084
:1003800086E090E090933301809332014FC081E08A
:1003900090E0909333018093320148C0813039F46A
:1003A00085E090E090933301809332013FC081E07B
:1003B00090E0909333018093320138C0823039F459
:1003C00085E090E090933301809332012FC081E06B
:1003D00090E0909333018093320128C0843039F447
:1003E00085E090E090933301809332011FC081E05B
:1003F00090E0909333018093320118C080913A01CC
:1004000090913B01892B39F085E090E09093330186
:10041000809332010BC081E090E090933301809390
:10042000320104C0109233011092320180913201E6
:10043000909133018330910529F130F48130910599
:1004400059F0029781F0089585309105C9F148F17E
:10045000069709F444C0089510923B0110923A01A6
:100460000E94870108958EE190E090933B01809374
:100470003A010E947A0164E17AE283E295E40E9403
:100480000A0108958EE190E090933B0180933A0138
:100490000E947A016FE87AE287E395E40E940A01FC
:1004A00008958EE190E090933B0180933A010E9481
:1004B0007A0164E17AEA8DE495E40E940A010895E4
:1004C00080913A0190913B01009731F00197909310
:1004D0003B0180933A0108950E94870108950E948C
:1004E00087010895809138019091390181309105FB
:1004F000A9F038F08230910569F1039709F446C0FC
:1005000061C085E290E0909327018093260181E00D
:1005100090E0909339018093380158C08091260172
:1005200090912701892B61F482E090E0909339014A
:100530008093380185E290E0909327018093260113
:100540008091260190912701019790932701809334
:1005500026013CC08091260190912701892B61F4EE
:1005600083E090E0909339018093380185E290E038
:100570009093270180932601809126019091270175
:100580000197909327018093260120C08091260136
:1005900090912701892B61F481E090E090933901DB
:1005A0008093380185E290E09093270180932601A3
:1005B00080912601909127010197909327018093C4
:1005C000260104C01092390110923801809138013F
:1005D000909139018230910561F083309105A1F04D
:1005E0000197E1F480912801887F81608093280140
:1005F000089580912801982F9770923079F0887F24
:10060000826080932801089580912801982F977027
:10061000943021F0887F8460809328010895809130
:100620003601909137018130910589F018F00297D9
:1006300051F145C081E090E09093370180933601FD
:100640008DE790E090932501809324013CC0809138
:10065000240190912501892B61F482E090E0909330
:100660003701809336018DE790E0909325018093C8
:1006700024018091240190912501019790932501F7
:100680008093240120C08091240190912501892B21
:1006900061F481E090E090933701809336018DE71B
:1006A00090E0909325018093240180912401909102
:1006B00025010197909325018093240104C0109295
:1006C00037011092360180913601909137018130C7
:1006D000910519F0029739F00895809128018860FA
:1006E00080932801089580912801877F80932801B5
:1006F00008958091340190913501009719F0019788
:1007000041F00EC081E090E0909335018093340178
:100710000BC00E9472020E940F030E948C0104C051
:10072000109235011092340180913401909135017D
:10073000019719F48091280185B9089511B88FEFB8
:1007400082B984B915B861E070E080E090E00E9461
:10075000F9000E947F0010923B0110923A01109222
:100760003301109232010E94790380912D01882378
:10077000E1F310922D01F7CFEE0FFF1F0024001CB4
:100780000BBE0790F691E02D09949CD008F481E00F
:1007900008950CD0D2C0CAD040F0C1D030F021F4BE
:1007A0005F3F19F0B3C05111FCC0B6C0D7D098F369
:1007B0009923C9F35523B1F3951B550BBB27AA27E2
:1007C00062177307840738F09F5F5F4F220F331F54
:1007D000441FAA1FA9F333D00E2E3AF0E0E830D020
:1007E00091505040E695001CCAF729D0FE2F27D023
:1007F000660F771F881FBB1F261737074807AB07F1
:10080000B0E809F0BB0B802DBF01FF2793585F4F65
:100810002AF09E3F510568F079C0C3C05F3FECF3FA
:10082000983EDCF3869577956795B795F7959F5F2A
:10083000C9F7880F911D9695879597F90895E1E07E
:10084000660F771F881FBB1F621773078407BA07DD
:1008500020F0621B730B840BBA0BEE1F88F7E09538
:10086000089504D06894B1119CC008957FD088F099
:100870009F5790F0B92F9927B751A0F0D1F0660F8C
:10088000771F881F991F1AF0BA95C9F712C0B130A7
:1008900081F086D0B1E0089583C0672F782F882734
:1008A000B85F39F0B93FCCF3869577956795B395E6
:1008B000D9F73EF490958095709561957F4F8F4F55
:1008C0009F4F0895990F0008550FAA0BE0E8FEEF1F
:1008D00016161706E807F907C0F012161306E40704
:1008E000F50798F0621B730B840B950B39F40A26FD
:1008F00061F0232B242B252B21F408950A2609F4DB
:10090000A140A6958FEF811D811D089597F99F67DE
:1009100080E870E060E008959FEF80EC0895002487
:100920000A941616170618060906089500240A9454
:1009300012161306140605060895092E0394000CDA
:1009400011F4882352F0BB0F40F4BF2B11F460FF69
:1009500004C06F5F7F4F8F4F9F4F089557FD905892
:10096000440F551F59F05F3F71F04795880F97FB73
:10097000991F61F09F3F79F087950895121613062D
:100980001406551FF2CF4695F1DF08C0161617065C
:100990001806991FF1CF8695710561050894089591
:1009A000E894BB2766277727CB0197F908958ADF5C
:1009B00008F48FEF08950BD0C0CFB1DF28F0B6DF79
:1009C00018F0952309F0A2CFA7CF1124EACFC6DFF4
:1009D000A0F3959FD1F3950F50E0551F629FF00152
:1009E000729FBB27F00DB11D639FAA27F00DB11DAB
:1009F000AA1F649F6627B00DA11D661F829F222734
:100A0000B00DA11D621F739FB00DA11D621F839FBA
:100A1000A00D611D221F749F3327A00D611D231F90
:100A2000849F600D211D822F762F6A2F11249F57DE
:100A300050408AF0E1F088234AF0EE0FFF1FBB1F01
:100A4000661F771F881F91505040A9F79E3F5105A0
:100A500070F05CCFA6CF5F3FECF3983EDCF3869559
:100A600077956795B795F795E7959F5FC1F7FE2B4B
:100A7000880F911D9695879597F90895F894FFCF63
:100A80000100000000000002000000006E000000F5
:100A900000007D0025001E0014AA4D458F2A374511
:040AA000142A2345AC
:00000001FF
