:100000000C9446000C9465000C9465000C946500FB
:100010000C9465000C9465000C9465000C946500CC
:100020000C9465000C9465000C9465000C946500BC
:100030000C9465000C94A3000C9465000C9465006E
:100040000C9465000C9465000C9465000C9465009C
:100050000C9465000C9465000C9465000C9465008C
:100060000C9465000C9465000C9465000C9465007C
:100070000C9465000C9465000C9465000C9465006C
:100080000C9465000C9465000C94650011241FBE4F
:10009000CFEFD0E4DEBFCDBF11E0A0E0B1E0E6E8F5
:1000A000F4E000E00BBF02C007900D92A631B1074B
:1000B000D9F711E0A6E1B1E001C01D92A632B10767
:1000C000E1F70E942D020C9441020C940000CF93A2
:1000D000C82F8A3019F48DE00E9467009091C0000B
:1000E00095FFFCCFC093C60080E090E0CF910895CB
:1000F0008BE0809381008DE790E09093890080935E
:10010000880082E080936F00109285001092840036
:100110008091000190910101A0910201B091030131
:1001200080931B0190931C01A0931D01B0931E01AD
:100130008FB780688FBF089510928100089581E085
:1001400080931F0108951F920F920FB60F921124F2
:100150000BB60F922F933F934F935F936F937F93C1
:100160008F939F93AF93BF93EF93FF9380911B0166
:1001700090911C01A0911D01B0911E010197A10950
:10018000B10980931B0190931C01A0931D01B093B2
:100190001E01892B8A2B8B2B91F40E949F0080914A
:1001A000000190910101A0910201B091030180939F
:1001B0001B0190931C01A0931D01B0931E01FF91A0
:1001C000EF91BF91AF919F918F917F916F915F91CF
:1001D0004F913F912F910F900BBE0F900FBE0F903C
:1001E0001F901895609300017093010180930201A4
:1001F0009093030160931B0170931C0180931D0178
:1002000090931E01089580912401909125018130E1
:100210009105A9F038F08230910569F1039709F44E
:1002200046C061C08DE790E090931901809318015A
:1002300081E090E0909325018093240158C0809143
:10024000180190911901892B61F482E090E090935C
:100250002501809324018DE790E09093190180930C
:10026000180180911801909119010197909319013B
:10027000809318013CC08091180190911901892B3D
:1002800061F483E090E090932501809324018DE751
:1002900090E090931901809318018091180190913A
:1002A00019010197909319018093180120C0809142
:1002B000180190911901892B61F481E090E09093ED
:1002C0002501809324018DE790E09093190180939C
:1002D00018018091180190911901019790931901CB
:1002E0008093180104C0109225011092240180917E
:1002F0002401909125018230910561F083309105B0
:10030000A1F00197E1F480911A01887F81608093C8
:100310001A01089580911A01982F9770923079F000
:10032000887F826080931A01089580911A01982F26
:100330009770943021F0887F846080931A0108952B
:1003400080912201909123018130910589F018F06C
:10035000029751F145C081E090E090932301809392
:1003600022018DE790E090931701809316013CC025
:100370008091160190911701892B61F482E090E041
:1003800090932301809322018DE790E090931701D1
:100390008093160180911601909117010197909317
:1003A00017018093160120C08091160190911701CA
:1003B000892B61F481E090E09093230180932201E6
:1003C0008DE790E0909317018093160180911601BC
:1003D000909117010197909317018093160104C023
:1003E0001092230110922201809122019091230109
:1003F0008130910519F0029739F0089580911A0122
:10040000886080931A01089580911A01877F8093F4
:100410001A0108958091200190912101009719F00F
:10042000019741F00CC081E090E09093210180930E
:10043000200109C00E9403010E94A00104C0109283
:1004400021011092200180912001909121010197BA
:1004500019F480911A0185B908958FEF84B915B800
:1004600061E070E080E090E00E94F2000E9478007D
:100470000E940A0280911F018823E1F310921F015C
:06048000F7CFF894FFCF56
:1004860001000000000000020000000067000000FC
:0604960000007D007D0066
:00000001FF
